:100000000C942A000C9447000C9447000C94470071
:100010000C9447000C9447000C9447000C94470044
:100020000C9447000C9447000C9447000C94470034
:100030000C9447000C9447000C9447000C94470024
:100040000C9447000C9447000C9447000C94470014
:100050000C94470011241FBECFE5D8E0DEBFCDBF12
:1000600011E0A0E6B0E0EEEAF2E602C005900D92E3
:10007000A63AB107D9F712E0A6EAB1E001C01D9295
:10008000AA30B107E1F70E94E02E0C9455310C9490
:100090000000A0E3B0E0EFE4F0E00C941E31A8E033
:1000A0004E010894811C911CF401BA2F1192BA954B
:1000B000E9F729833A834B835C836D837E838F8347
:1000C0009887CE010996FC011192AA95E9F7A986B5
:1000D000BA86CB86DC86ED86FE860F87188B298153
:1000E0003A814B815C812DA73EA74FA758AB790180
:1000F0008A018FEF9FEFA0E0B0E0E822F9220A2307
:100100001B231A014424552429853A854B855C8597
:1001100029A73AA74BA75CA759016A01A822B922CF
:10012000CA22DB223A0188249924C601B501A8011C
:1001300097010E94C2306DA37EA38FA398A7C4012C
:10014000B3010E94C23069A37AA38BA39CA3C6010A
:10015000B501A20191010E94C2307B018C01C40152
:10016000B3010E94C2305B016C0189A19AA1ABA1CD
:10017000BCA18E0D9F1DA01FB11F89A39AA3ABA385
:10018000BCA32DA13EA14FA158A5CA01AA27BB27F8
:1001900029A13AA14BA15CA1280F391F4A1F5B1F5F
:1001A00029A33AA34BA35CA32E153F054007510793
:1001B00040F480E090E0A1E0B0E0A80EB91ECA1EB5
:1001C000DB1E89A19AA1ABA1BCA19D0144275527A3
:1001D0002A0D3B1D4C1D5D1D2D8F3E8F4F8F58A34B
:1001E0006C01BB24AA248DA19EA1AFA1B8A5A070CB
:1001F000B070A80EB91ECA1EDB1EA98EBA8ECB8E99
:10020000DC8E9A8C8B8C7C8C9E8D6F8D78A1FE0100
:10021000719688E0DF011D928A95E9F72D8B9E8B00
:100220006F8B788F2D853E854F8558896DA57EA56E
:100230008FA598A90E94C2307B018C012D813E813F
:100240004F81588569A57AA58BA59CA50E94C230CF
:10025000E60EF71E081F191F6D897E898F89988DFC
:100260006E0D7F1D801F911F6D8B7E8B8F8B988FE6
:10027000EE892A2D392D482D572D7E2F8F89988D67
:10028000E096E2E10C943A31EF92FF920F93DF9304
:10029000CF93CDB7DEB760970FB6F894DEBF0FBE31
:1002A000CDBFA82F002309F461C07E010894E11C92
:1002B000F11C88E0F70111928A95E9F729833A83C6
:1002C0004B835C836D837E83AF83988780E2801B42
:1002D000E82FFF27E7FDF09549815A816B817C81EA
:1002E000181684F019861A861B861C86882799277B
:1002F0008E1B9F0B04C0440F551F661F771F8A95E6
:10030000D2F728C0202F332727FD3095DB01CA0103
:10031000022E04C0880F991FAA1FBB1F0A94D2F790
:1003200089879A87AB87BC8704C076956795579570
:100330004795EA95D2F78D819E81AF81B88504C03B
:10034000880F991FAA1FBB1F2A95D2F7482B592B3C
:100350006A2B7B2B4D875E876F87788B29853A8543
:100360004B855C856D857E85AF8598898A2F6096E3
:100370000FB6F894DEBF0FBECDBFCF91DF910F91C6
:10038000FF90EF900895EF92FF920F931F937B01E0
:100390008C0120E030E040E05FE40E9428158823D3
:1003A0008CF0C801B70120E030E040E05FE40E943B
:1003B000A0130E9488159B01AC01205030404040A2
:1003C000504806C0C801B7010E9488159B01AC01C6
:1003D000B901CA011F910F91FF90EF900895A2E714
:1003E000B0E0E5EFF1E00C941E31982E892E712ECD
:1003F00088E0FE013196DF01682E1D926A94E9F7CC
:1004000029833A834B835C836D837E839F829887A5
:10041000FE013996DF011D928A95E9F7A986BA8611
:10042000CB86DC86ED86FE860F87188B8D819E81BC
:10043000AF81B885B7FD07C0E1961CAE1DAE1EAEFC
:100440001FAEE19764C0219581E0121608F080E0AC
:10045000319591E0131608F090E0B32FB81B81E0BE
:100460003B1708F080E0982B419531E0141608F016
:1004700030E0A42FA91B81E04A1708F080E0382B58
:10048000519591E0151608F090E0F52FF31B81E0EF
:100490005F1708F080E0982B619531E0161608F0A0
:1004A00030E0E62FE91B81E06E1708F080E0382B82
:1004B000719541E0171608F040E0572F531B81E07B
:1004C000751708F080E0482B892D819591E018166A
:1004D00008F090E0682E641A462D31E0861508F089
:1004E00030E0932B882D8195891B2983BA83AB83B8
:1004F000FC83ED835E834F8388872FEF3FEF4FEFC1
:100500005FEFE1962CAF3DAF4EAF5FAFE1978D85CA
:100510009E85AF85B889B7FF6AC0E1964CAD5DADE9
:100520006EAD7FADE1974095509560957095E196E1
:100530004CAF5DAF6EAF7FAFE197A19481E01A142D
:1005400008F080E0B19491E01B1408F090E06B2D6E
:10055000681B81E0B61608F080E0982BC19421E07A
:100560001C1408F020E05C2D591B81E0C51608F032
:1005700080E0282BD19491E01D1408F090E04D2DDF
:10058000421B81E0D41608F080E0982BE19421E032
:100590001E1408F020E03E2D391B81E0E31608F020
:1005A00080E0282BF19491E01F1408F090E07F2D5B
:1005B000721B272F81E0F71608F080E0982B019539
:1005C00011E0101608F010E0802F891B982F81E0B1
:1005D000091708F080E0182B872D8195811BA986CB
:1005E0006A875B874C873D872E879F87888B998199
:1005F0002A813B814C815D816E817F81A885B9858F
:100600001A850B85FC84ED84DE84CF84B88888E06D
:10061000E1E18E2E912C8C0E9D1EF401682E11921C
:100620006A94E9F7998B2A8B3B8B4C8B5D8B6E8B95
:100630007F8BA88F9E01275E3F4FF90111928A950B
:10064000E9F7B98F1A8F0B8FFC8EED8EDE8ECF8E71
:10065000B8A2298C3A8C4B8C5C8CED8CFE8C0F8D67
:1006600018A169887A888B889C8821966CAE7DAEAB
:100670008EAE9FAE21976D887E888F88988CE1140E
:10068000F1040105110509F0D9C36214730484044F
:10069000950408F057C100E0201600E0300601E0A4
:1006A000400600E0500688F41FEF21163104410493
:1006B000510439F030F048E0E42EF12C012D112DD9
:1006C00018C0EE24FF24870114C020E0221620E089
:1006D000320620E0420621E0520630F038E1E32EF7
:1006E000F12C012D112D05C020E1E22EF12C012D60
:1006F000112DD201C1010E2C04C0B695A795979576
:1007000087950A94D2F783579F4FDC012C9180E2A2
:1007100090E0A0E0B0E08E199F09A00BB10B7C0126
:100720008D01E21AF10801091109E114F104010532
:100730001105D1F10E2C04C0220C331C441C551C95
:100740000A94D2F7A40193010E2C04C0220F331F88
:10075000441F551F0A94D2F780E290E08E199F093A
:1007600021966CAC7DAC8EAC9FAC219704C0969466
:100770008794779467948A95D2F7622A732A842A99
:10078000952A2196ACACBDACCEACDFAC219704C0B1
:10079000AA0CBB1CCC1CDD1CEA94D2F72196ACAE93
:1007A000BDAECEAEDFAE21976201EE24FF242996C6
:1007B000CCAEDDAEEEAEFFAE299792018101207086
:1007C00030702D960CAF1DAF2EAF3FAF2D97C401EB
:1007D000B301A70196010E94E1307B018C01C401A5
:1007E000B30129962CAD3DAD4EAD5FAD29970E946A
:1007F000E130C901DA013C014D01C401B3012D967C
:100800002CAD3DAD4EAD5FAD2D970E94C2309B012A
:10081000AC018701FF24EE242196ACACBDACCEAC7C
:10082000DFAC2197C601AA27BB2757016801A82A78
:10083000B92ACA2ADB2AA216B306C406D506E0F4F2
:1008400008946108710881089108A20CB31CC41CAB
:10085000D51CA214B304C404D50470F0A216B306C8
:10086000C406D50648F40894610871088108910807
:10087000A20CB31CC41CD51CA21AB30AC40AD50A04
:10088000C601B50129962CAD3DAD4EAD5FAD2997A2
:100890000E94E1307B018C01C601B50129962CAD87
:1008A0003DAD4EAD5FAD29970E94E130C901DA013F
:1008B0005C016D01C601B5012D962CAD3DAD4EAD6F
:1008C0005FAD2D970E94C2309B01AC018701FF24D0
:1008D000EE2421968CAD9DADAEADBFAD2197A0703D
:1008E000B070E82AF92A0A2B1B2BE216F30604073C
:1008F0001507C0F40894A108B108C108D108E20C9A
:10090000F31C041D151DE214F3040405150550F035
:10091000E216F3060407150728F40894A108B108A5
:10092000C108D108D3019927882786017501E82AD3
:10093000F92A0A2B1B2B2596ECAEFDAE0EAF1FAF8E
:100940002597EBC4211431044104510471F461E092
:1009500070E080E090E020E030E040E050E00E9475
:10096000E130C901DA011C012D0100E0201600E090
:10097000300601E0400600E0500688F41FEF211623
:1009800031044104510431F028F048E050E060E0C7
:1009900070E017C040E050E060E070E012C020E07E
:1009A000221620E0320620E0420621E0520628F01E
:1009B00048E150E060E070E004C040E150E060E0F9
:1009C00070E0D201C101042E04C0B695A795979599
:1009D00087950A94D2F783579F4FDC012C91E0E270
:1009E000EE2EF12C012D112DD801C701841B950B82
:1009F000A60BB70B821B9109A109B1090097A105AC
:100A0000B10561F464015301A218B308C408D50804
:100A100031E0632E712C812C912C24C1E3968FAF91
:100A2000E397082E04C0220C331C441C551C0A9466
:100A3000D2F7EE2DE81B640153010E2E04C0D694AC
:100A4000C794B794A7940A94D2F7A4019301E396AC
:100A50000FACE39704C0220F331F441F551F0A94A5
:100A6000D2F721966CAC7DAC8EAC9FAC21970E2E4C
:100A700004C096948794779467940A94D2F784017B
:100A80007301E22AF32A042B152BE9AEFAAE0BAF61
:100A90001CAF3201882499249201810120703070AA
:100AA00061960CAF1DAF2EAF3FAF6197C601B50188
:100AB000A40193010E94E1307B018C01C601B501C4
:100AC000A40193010E94E130C901DA0165968CAF5F
:100AD0009DAFAEAFBFAF6597BC01CD0161962CADA8
:100AE0003DAD4EAD5FAD61970E94C2309B01AC0140
:100AF0008701FF24EE24A9ACBAACCBACDCACC601B8
:100B0000AA27BB275C016D01AE28BF28C02AD12AC5
:100B1000A216B306C406D50660F565966CAD7DAD2C
:100B20008EAD9FAD65976150704080409040659656
:100B30006CAF7DAF8EAF9FAF6597A20CB31CC41C8A
:100B4000D51CA214B304C404D50498F0A216B306AD
:100B5000C406D50670F461507040804090406596A0
:100B60006CAF7DAF8EAF9FAF6597A20CB31CC41C5A
:100B7000D51CA21AB30AC40AD50AC601B501A4013C
:100B800093010E94E1307B018C01C601B501A401F3
:100B900093010E94E130C901DA013C014D01C40119
:100BA000B30161962CAD3DAD4EAD5FAD61970E9436
:100BB000C2309B01AC018701FF24EE2489AD9AADC0
:100BC000ABADBCADA070B07057016801A82AB92ABE
:100BD000CA2ADB2AA216B306C406D506E0F4089496
:100BE0006108710881089108A20CB31CC41CD51CB3
:100BF000A214B304C404D50470F0A216B306C4064C
:100C0000D50648F408946108710881089108A20C7F
:100C1000B31CC41CD51C21968CAD9DADAEADBFAD33
:100C20002197E3960FACE39704C0880F991FAA1F82
:100C3000BB1F0A94D2F721968CAF9DAFAEAFBFAF6A
:100C40002197A21AB30AC40AD50A6596ECACFDAC8A
:100C50000EAD1FAD6597D70199278827682A792A95
:100C60008A2A9B2A82012227332769960CAF1DAF5F
:100C70002EAF3FAF6997A2019101407050706D9601
:100C80002CAF3DAF4EAF5FAF6D97C601B501699612
:100C90002CAD3DAD4EAD5FAD69970E94E1307B015B
:100CA0008C01C601B50169962CAD3DAD4EAD5FAD71
:100CB00069970E94E130C901DA01A1968CAF9DAF1E
:100CC000AEAFBFAFA197BC01CD016D962CAD3DADD0
:100CD0004EAD5FAD6D970E94C2309B01AC018701A4
:100CE000FF24EE242196ACACBDACCEACDFAC21979A
:100CF000C601AA27BB2757016801A82AB92ACA2A10
:100D0000DB2AA216B306C406D50660F5A1966CAD23
:100D10007DAD8EAD9FADA1976150704080409040F9
:100D2000A1966CAF7DAF8EAF9FAFA197A20CB31C05
:100D3000C41CD51CA214B304C404D50498F0A21694
:100D4000B306C406D50670F46150704080409040F0
:100D5000A1966CAF7DAF8EAF9FAFA197A20CB31CD5
:100D6000C41CD51CA21AB30AC40AD50AC601B5010F
:100D700069962CAD3DAD4EAD5FAD69970E94E130F7
:100D80007B018C01C601B50169962CAD3DAD4EAD20
:100D90005FAD69970E94E130C901DA015C016D0124
:100DA000C601B5016D962CAD3DAD4EAD5FAD6D97F5
:100DB0000E94C2309B01AC018701FF24EE242196E2
:100DC0008CAD9DADAEADBFAD2197A070B070E82ADF
:100DD000F92A0A2B1B2BE216F30604071507C0F4A9
:100DE0000894A108B108C108D108E20CF31C041D45
:100DF000151DE214F3040405150550F0E216F30680
:100E00000407150728F40894A108B108C108D108FF
:100E1000A196ECACFDAC0EAD1FADA197D701992703
:100E2000882796018501082B192B2A2B3B2B259609
:100E30000CAF1DAF2EAF3FAF259772C26E147F046B
:100E40008006910608F45FC220E0E21620E0F20678
:100E500021E0020720E0120788F43FEFE316F104D7
:100E60000105110531F028F048E050E060E070E045
:100E700017C040E050E060E070E012C040E0E416CF
:100E800040E0F40640E0040741E0140728F048E1A0
:100E900050E060E070E004C040E150E060E070E0ED
:100EA000D801C701042E04C0B695A79597958795DC
:100EB0000A94D2F783579F4FDC012C9130E2A32E86
:100EC000B12CC12CD12CD601C501841B950BA60BCE
:100ED000B70B821B9109A109B1090097A105B105C2
:100EE00099F4E614F7040805190508F4FEC12196E3
:100EF0006CAC7DAC8EAC9FAC2197621473048404FF
:100F0000950408F0F2C1FFC1E2968FAFE297082E78
:100F100004C0EE0CFF1C001F111F0A94D2F76A2DAB
:100F2000681BD201C101062E04C0B695A7959795FE
:100F300087950A94D2F75C016D01AE28BF28C02ABC
:100F4000D12AADAABEAACFAAD8AE72016101E2969B
:100F50000FACE29704C0CC0CDD1CEE1CFF1C0A9405
:100F6000D2F7C9AADAAAEBAAFCAA64015301062E99
:100F700004C0D694C794B794A7940A94D2F7D40126
:100F8000C301E2960FACE29704C0880F991FAA1F15
:100F9000BB1F0A94D2F72196ECACFDAC0EAD1FAD91
:100FA000219704C016950795F794E7946A95D2F7B0
:100FB00037014801682A792A8A2A9B2A6DA67EA6CB
:100FC0008FA698AAEDA8FEA80FA918AD380188240D
:100FD00099249801870120703070A5960CAF1DAF41
:100FE0002EAF3FAFA597C601B501A40193010E94A2
:100FF000E1307B018C01C601B501A40193010E947F
:10100000E130C901DA011C012D01C201B101A5962F
:101010002CAD3DAD4EAD5FADA5970E94C2309B019A
:10102000AC018701FF24EE24ADA4BEA4CFA4D8A8B0
:10103000C601AA27BB2757016801A82AB92ACA2ACC
:10104000DB2AA216B306C406D50600F508942108CB
:10105000310841085108EDA8FEA80FA918ADAE0C43
:10106000BF1CC01ED11EAE14BF04C006D10670F056
:10107000A216B306C406D50648F408942108310820
:1010800041085108AE0CBF1CC01ED11EA21AB30AE3
:10109000C40AD50AC601B501A40193010E94E1303A
:1010A0007B018C01C601B501A40193010E94E130CE
:1010B000C901DA013C014D01C401B301A5962CAD73
:1010C0003DAD4EAD5FADA5970E94C2309B01AC0116
:1010D0008701FF24EE248DA59EA5AFA5B8A9A07019
:1010E000B07057016801A82AB92ACA2ADB2AA216B9
:1010F000B306C406D50600F5089461087108810896
:1011000091086DA97EA98FA998ADA60EB71EC81E1D
:10111000D91EA616B706C806D90670F0A216B306E1
:10112000C406D50648F4089461087108810891083E
:10113000A60EB71EC81ED91ED601C501821B930B71
:10114000A40BB50B89A79AA7ABA7BCA7D101992778
:10115000882764015301A82AB92ACA2ADB2A2596BE
:10116000ACAEBDAECEAEDFAE2597860175012FEFDA
:101170003FEF40E050E0E222F32204231523A601D2
:1011800066277727AD964CAF5DAF6EAF7FAFAD975B
:10119000A9A8BAA8CBA8DCA86FEF7FEF80E090E009
:1011A000A622B722C822D92289A99AA9ABA9BCA98B
:1011B0001D0144245524C801B701A60195010E94D0
:1011C000C230A9966CAF7DAF8EAF9FAFA997C80113
:1011D000B701A20191010E94C2303B014C01AD96C2
:1011E0006CAD7DAD8EAD9FADAD97A60195010E9412
:1011F000C2307B018C01AD966CAD7DAD8EAD9FADE7
:10120000AD97A20191010E94C2305B016C01A8015F
:101210009701260D371D481D591DA9966CAC7DAC54
:101220008EAC9FACA997C401AA27BB27280F391FF2
:101230004A1F5B1F2E153F054007510748F4E12C5C
:10124000F12C61E0062F112DAE0CBF1CC01ED11E6B
:10125000CA01AA27BB27BC01CD016A0D7B1D8C1DCD
:101260009D1D69A47AA48BA49CA4661677068806A3
:10127000990650F1661577058805990509F04DC066
:10128000D90199278827A9962CAD3DAD4EAD5FAD0C
:10129000A99740705070820F931FA41FB51F21960D
:1012A0002CAD3DAD4EAD5FAD2197E2960FACE29710
:1012B00004C0220F331F441F551F0A94D2F728176A
:1012C00039074A075B0748F525960CAD1DAD2EADD5
:1012D0003FAD2597015010402040304025960CAF7F
:1012E0001DAF2EAF3FAF259718C06624772443016A
:1012F00021E030E040E050E025962CAF3DAF4EAF0E
:101300005FAF25970DC066247724430125961CAE58
:101310001DAE1EAE1FAE259703C066247724430181
:10132000FE01B19688E0DF011D928A95E9F72596C6
:10133000ACACBDACCEACDFAC2597A9A2BAA2CBA217
:10134000DCA26DA27EA28FA298A622962FAD229734
:101350003AA14BA15CA1662D7EA1DFA098A5E196E4
:10136000ECACFDAC0EAD1FADE197E114F10401054D
:10137000110509F456C0219581E0121608F080E0AD
:101380003195E1E0131608F0E0E0932E981A81E021
:10139000391508F080E0E82B4195F1E0141608F0CB
:1013A000F0E0A42EAE1A81E04A1508F080E0F82B98
:1013B0005195E1E0151608F0E0E0B52EBF1A81E086
:1013C0005B1508F080E0E82B6195F1E0161608F057
:1013D000F0E0A62FAE1B81E06A1708F080E0F82B42
:1013E0007195E1E0171608F0E0E0C72ECF1A81E012
:1013F0007C1508F080E0E82B8D2D8195F1E0181622
:1014000008F0F0E0D82EDE1AE1E08D1508F0E0E0FB
:10141000FE2B892F8195392DA5016A2F7C2D982FC0
:101420009F1B8D2DCE58DF4FE2E10C943A31A7E798
:10143000B0E0EDE1FAE00C941E31982E892E712E69
:1014400088E0FE013196DF01682E1D926A94E9F76B
:1014500029833A834B835C836D837E839F82988745
:10146000FE013996DF011D928A95E9F7A986BA86B1
:10147000CB86DC86ED86FE860F87188B8D819E815C
:10148000AF81B885B7FD07C0E1961CAE1DAE1EAE9C
:101490001FAEE19764C0219581E0121608F080E04C
:1014A000319591E0131608F090E0B32FB81B81E05E
:1014B0003B1708F080E0982B419531E0141608F0B6
:1014C00030E0A42FA91B81E04A1708F080E0382BF8
:1014D000519591E0151608F090E0F52FF31B81E08F
:1014E0005F1708F080E0982B619531E0161608F040
:1014F00030E0E62FE91B81E06E1708F080E0382B22
:10150000719541E0171608F040E0572F531B81E01A
:10151000751708F080E0482B892D819591E0181609
:1015200008F090E0682E641A462D31E0861508F028
:1015300030E0932B882D8195891B2983BA83AB8357
:10154000FC83ED835E834F8388872FEF3FEF4FEF60
:101550005FEFE1962CAF3DAF4EAF5FAFE1978D856A
:101560009E85AF85B889B7FF5AC0A19481E01A144F
:1015700008F080E0B19491E01B1408F090E06B2D2E
:10158000681B81E0B61608F080E0982BC19421E03A
:101590001C1408F020E05C2D591B81E0C51608F0F2
:1015A00080E0282BD19491E01D1408F090E04D2D9F
:1015B000421B81E0D41608F080E0982BE19421E0F2
:1015C0001E1408F020E03E2D391B81E0E31608F0E0
:1015D00080E0282BF19491E01F1408F090E07F2D1B
:1015E000721B272F81E0F71608F080E0982B0195F9
:1015F00011E0101608F010E0802F891B982F81E071
:10160000091708F080E0182B872D8195811BA9868A
:101610006A875B874C873D872E879F87888B998158
:101620002A813B814C815D816E817F81A885B9854E
:101630001A850B85FC84ED84DE84CF84B88888E02D
:10164000E9E18E2E912C8C0E9D1EF401682E1192D4
:101650006A94E9F7998F2A8F3B8F4C8F5D8F6E8F3D
:101660007F8FA8A39E012F5D3F4FF90111928A95AC
:10167000E9F7B9A31AA30BA3FCA2EDA2DEA2CFA2A5
:10168000B8A629A03AA04BA05CA0ADA0BEA0CFA058
:10169000D8A4498D5A8D6B8D7C8DE5964FAFE5971B
:1016A000E6965FAFE697E7966FAFE797E8967FAF6E
:1016B000E897E8966CAC7DAC8EAC9FACE8972D9625
:1016C0006CAE7DAE8EAE9FAE2D978D8D9E8D2F8D87
:1016D00038A13C01490161966CAE7DAE8EAE9FAEE5
:1016E0006197A114B104C104D10409F028C36214A4
:1016F00073048404950408F00EC100E0201600E095
:10170000300601E0400600E0500688F41FEF211685
:1017100031044104510439F030F088E0E82EF12C16
:10172000012D112D18C0EE24FF24870114C020E0E4
:10173000221620E0320620E0420621E0520630F078
:10174000B8E1EB2EF12C012D112D05C0A0E1EA2E00
:10175000F12C012D112DD201C1010E2C04C0B69522
:10176000A795979587950A94D2F783579F4FDC01E9
:101770002C9180E290E0A0E0B0E08E199F09A00BD0
:10178000B10B5C016D01A21AB108C108D1086596C0
:10179000ACAEBDAECEAEDFAE6597A114B104C10450
:1017A000D10409F445C062966FAD6297062E04C05D
:1017B000220C331C441C551C0A94D2F7A40193013B
:1017C000062E04C0220F331F441F551F0A94D2F760
:1017D00080E290E08A199B09E896CCACDDACEEACD7
:1017E000FFACE89704C0F694E794D794C7948A9521
:1017F000D2F787017601E22AF32A042B152B619692
:10180000ECAEFDAE0EAF1FAF6197E8960CAD1DAD0F
:101810002EAD3FADE89704C0000F111F221F331FEC
:101820006A95D2F72D960CAF1DAF2EAF3FAF2D9717
:10183000320188249924A201910140705070699668
:101840002CAF3DAF4EAF5FAF699761966CAD7DAD8C
:101850008EAD9FAD6197A40193010E94E1307B01A1
:101860008C0161966CAD7DAD8EAD9FAD6197A4018D
:1018700093010E94E130CA01B90169962CAD3DADDA
:101880004EAD5FAD69970E94C2309B01AC018701EC
:10189000FF24EE242D96ACACBDACCEACDFAC2D97C6
:1018A000C601AA27BB2757016801A82AB92ACA2A54
:1018B000DB2AA216B306C406D50690F4A20CB31C0C
:1018C000C41CD51CA214B304C404D50448F0A21649
:1018D000B306C406D50620F4A20CB31CC41CD51C48
:1018E000A21AB30AC40AD50AC601B501A40193011C
:1018F0000E94E1307B018C01C601B501A401930176
:101900000E94E130CA01B90169962CAD3DAD4EADE2
:101910005FAD6997C8C1211431044104510471F4C9
:1019200061E070E080E090E020E030E040E050E0F6
:101930000E94E130C901DA011C012D0100E02016EE
:1019400000E0300601E0400600E0500688F41FEF9A
:10195000211631044104510439F030F068E0E62EDC
:10196000F12C012D112D18C0EE24FF24870114C085
:1019700020E0221620E0320620E0420621E0520656
:1019800030F058E1E52EF12C012D112D05C040E17C
:10199000E42EF12C012D112DD201C1010E2C04C019
:1019A000B695A795979587950A94D2F783579F4F39
:1019B000DC012C9130E2A32EB12CC12CD12CD6010C
:1019C000C5018E199F09A00BB10B7C018D01E21A94
:1019D000F108010911096596ECAEFDAE0EAF1FAF1F
:1019E0006597E114F1040105110539F4640153010F
:1019F000A218B308C408D508ECC06296FFAC629781
:101A0000E496FFAEE4970F2C04C0220C331C441C58
:101A1000551C0A94D2F78A2D8F1964015301082EA0
:101A200004C0D694C794B794A7940A94D2F7A4019B
:101A3000930104C0220F331F441F551FFA94D2F79D
:101A4000E8966CAC7DAC8EAC9FACE89704C09694E5
:101A50008794779467948A95D2F784017301E22A78
:101A6000F32A042B152B2996ECAEFDAE0EAF1FAF5B
:101A700029973201882499249201810120703070C5
:101A80006D960CAF1DAF2EAF3FAF6D97C601B50180
:101A9000A40193010E94E1307B018C01C601B501D4
:101AA000A40193010E94E130CA01B9016D962CADE9
:101AB0003DAD4EAD5FAD6D970E94C2309B01AC0154
:101AC0008701FF24EE242996ACACBDACCEACDFACD4
:101AD0002997C601AA27BB275C016D01AE28BF2844
:101AE000C02AD12AA216B306C406D50690F4A20CC9
:101AF000B31CC41CD51CA214B304C404D50448F000
:101B0000A216B306C406D50620F4A20CB31CC41C4E
:101B1000D51CA21AB30AC40AD50AC601B501A4018C
:101B200093010E94E1307B018C01C601B501A40143
:101B300093010E94E130CA01B9016D962CAD3DAD13
:101B40004EAD5FAD6D970E94C2309B01AC01870125
:101B5000FF24EE2429968CAD9DADAEADBFAD299787
:101B6000A070B07057016801A82AB92ACA2ADB2AD6
:101B7000A216B306C406D50690F4A20CB31CC41C6E
:101B8000D51CA214B304C404D50448F0A216B306AD
:101B9000C406D50620F4A20CB31CC41CD51CE896C0
:101BA000ECACFDAC0EAD1FADE897E4960FACE4973E
:101BB00004C0EE0CFF1C001F111F0A94D2F72D96D3
:101BC000ECAEFDAE0EAF1FAF2D97A21AB30AC40A3A
:101BD000D50A320188249924920181012070307045
:101BE000A1960CAF1DAF2EAF3FAFA197C601B501B7
:101BF000A40193010E94E1307B018C01C601B50173
:101C0000A40193010E94E130CA01B901A1962CAD53
:101C10003DAD4EAD5FADA1970E94C2309B01AC01BE
:101C20008701FF24EE242D96ACACBDACCEACDFAC6E
:101C30002D97C601AA27BB2757016801A82AB92AF0
:101C4000CA2ADB2AA216B306C406D50690F4A20C53
:101C5000B31CC41CD51CA214B304C404D50448F09E
:101C6000A216B306C406D50620F4A20CB31CC41CED
:101C7000D51CA21AB30AC40AD50AC601B501A4012B
:101C800093010E94E1307B018C01C601B501A401E2
:101C900093010E94E130CA01B901A1962CAD3DAD7E
:101CA0004EAD5FADA1970E94C2309B01AC01870190
:101CB000FF24EE242D968CAD9DADAEADBFAD2D971E
:101CC000A070B070E82AF92A0A2B1B2BE216F30643
:101CD0000407150790F4E20CF31C041D151DE21413
:101CE000F3040405150548F0E216F306040715078A
:101CF00020F4E20CF31C041D151DE21AF30A040B78
:101D0000150BD801C70162960FAC629704C0B69557
:101D1000A795979587950A94D2F789A79AA7ABA715
:101D2000BCA71DA61EA61FA618AA898B8AA58A8BEA
:101D30008BA58B8B8CA58C8B8DA58D8B2FC36A145B
:101D40007B048C049D0448F4498B5A8B6B8B7C8BF1
:101D50008D8B9E8B2F8B388F27C300E0A01600E061
:101D6000B00601E0C00600E0D00688F41FEFA1161F
:101D7000B104C104D10439F030F028E0E22EF12C96
:101D8000012D112D18C0EE24FF24870114C020E07E
:101D9000A21620E0B20620E0C20621E0D20630F012
:101DA00098E1E92EF12C012D112D05C080E1E82EDE
:101DB000F12C012D112DD601C5010E2C04C0B695B4
:101DC000A795979587950A94D2F783579F4FDC0183
:101DD0002C9180E290E0A0E0B0E08E199F09A00B6A
:101DE000B10B821B9109A109B1090097A105B105A9
:101DF00009F059C0A614B704C804D90470F0E896D5
:101E0000ECACFDAC0EAD1FADE897E214F304040595
:101E1000150518F4D801C7012FC0E8968CAD9DAD0B
:101E2000AEADBFADE89782199309A409B509A40125
:101E300093012A193B094C095D09AA24BB246501B9
:101E4000E8966CAC7DAC8EAC9FACE89768167906D2
:101E50008A069B0628F411E0A12EB12CC12CD12CAE
:101E600079018A01EA18FB080C091D096196ECAE9C
:101E7000FDAE0EAF1FAF619789A79AA7ABA7BCA70E
:101E800061960CAD1DAD2EAD3FAD61970DA71EA7A0
:101E90002FA738AB898B8AA58A8B8BA58B8B8CA5BA
:101EA0008C8B0D8B7BC2E3968FAFE397A6019501D8
:101EB000082E04C0220F331F441F551F0A94D2F767
:101EC00010E2181BE2961FAFE297D201C101012E6A
:101ED00004C0B695A795979587950A94D2F75C01AB
:101EE0006D01A22AB32AC42AD52A2596ACAEBDAE6E
:101EF000CEAEDFAE259772016101E3960FACE3979A
:101F000004C0CC0CDD1CEE1CFF1C0A94D2F72196F9
:101F1000CCAEDDAEEEAEFFAE219764015301012ED3
:101F200004C0D694C794B794A7940A94D2F7A40196
:101F30009301E3960FACE39704C0220F331F441FB5
:101F4000551F0A94D2F7E8968CAD9DADAEADBFADEE
:101F5000E89704C0B695A795979587951A95D2F7F7
:101F60007C018D01E22AF32A042B152BE9AEFAAE8F
:101F70000BAF1CAFE8960CAD1DAD2EAD3FADE89795
:101F8000E3960FACE39704C0000F111F221F331F0D
:101F90000A94D2F70DAB1EAB2FAB38AF25962CAD04
:101FA0003DAD4EAD5FAD25973A0188249924407030
:101FB0005070A5962CAF3DAF4EAF5FAFA597C60151
:101FC000B501A40193010E94E1307B018C01C6019F
:101FD000B501A40193010E94E130C901DA011C019D
:101FE0002D01C201B101A5962CAD3DAD4EAD5FAD49
:101FF000A5970E94C2309B01AC018701FF24EE240B
:10200000A9ACBAACCBACDCACC601AA27BB27570144
:102010006801A82AB92ACA2ADB2AA216B306C4066E
:10202000D50610F508942108310841085108259675
:10203000ECACFDAC0EAD1FAD2597AE0CBF1CC01EA9
:10204000D11EAE14BF04C006D10670F0A216B306AE
:10205000C406D50648F408942108310841085108FF
:10206000AE0CBF1CC01ED11EA21AB30AC40AD50AE8
:10207000C601B501A40193010E94E1307B018C01EE
:10208000C601B501A40193010E94E130C901DA0142
:102090003C014D01C401B301A5962CAD3DAD4EAD43
:1020A0005FADA5970E94C2309B01AC018701FF2460
:1020B000EE2489AD9AADABADBCADA070B070570148
:1020C0006801A82AB92ACA2ADB2AA216B306C406BE
:1020D000D50610F5089461087108810891082596C5
:1020E0006CAD7DAD8EAD9FAD2597A60EB71EC81EFB
:1020F000D91EA616B706C806D90670F0A216B306F2
:10210000C406D50648F4089461087108810891084E
:10211000A60EB71EC81ED91ED601C501821B930B81
:10212000A40BB50B89AB9AABABABBCABD101992778
:10213000882784017301E82AF92A0A2B1B2B8FEFC9
:10214000A82E8FEFB82EC12CD12CAE20BF20C022DC
:10215000D12278010027112721966CAC7DAC8EAC82
:102160009FAC21972FEF3FEF40E050E062227322B7
:102170008422952221966CAD7DAD8EAD9FAD2197C9
:10218000AC0166277727AD964CAF5DAF6EAF7FAFE2
:10219000AD97C601B501A40193010E94C230A99672
:1021A0006CAF7DAF8EAF9FAFA997C601B501AD965D
:1021B0002CAD3DAD4EAD5FADAD970E94C2301B0161
:1021C0002C01C801B701A40193010E94C2305B0138
:1021D0006C01C801B701AD962CAD3DAD4EAD5FAD04
:1021E000AD970E94C2307B018C01A6019501220DA2
:1021F000331D441D551DA9966CAC7DAC8EAC9FACB7
:10220000A997C401AA27BB27280F391F4A1F5B1FA4
:102210002A153B054C055D0548F4812C912CE1E025
:10222000AE2EB12CE80CF91C0A1D1B1DCA01AA27F1
:10223000BB2757016801A80EB91ECA1EDB1EA901E3
:1022400033272227A9968CAD9DADAEADBFADA99722
:10225000A070B070280F391F4A1F5B1FE9A8FAA8A9
:102260000BA91CA9EA14FB040C051D0570F0AE14A3
:10227000BF04C006D10689F56DA97EA98FA998ADC6
:10228000621773078407950740F5DA01C9012196A3
:102290006CAC7DAC8EAC9FAC219786199709A809D0
:1022A000B9092596ECACFDAC0EAD1FAD2597AE1867
:1022B000BF08C00AD10AEE24FF2487012817390776
:1022C0004A075B0728F421E0E22EF12C012D112DA5
:1022D000AE18BF08C00AD10A02C0DA01C9016DA850
:1022E0007EA88FA898AC681A790A8A0A9B0A09A95D
:1022F0001AA92BA93CA90A191B092C093D09580147
:1023000069012224332421012DA93EA94FA958ADEA
:10231000261537054805590528F481E0282E312C6B
:10232000412C512C86017501E218F30804091509A6
:10233000A8019701E2960FACE29704C0220F331F69
:10234000441F551F0A94D2F7D401C301E3960FAC82
:10235000E39704C0B695A795979587950A94D2F709
:10236000282B392B4A2B5B2B29A73AA74BA75CA715
:10237000E3960FACE39704C016950795F794E7949E
:102380000A94D2F7EDA6FEA60FA718AB298B8AA553
:102390008A8B8BA58B8B8CA58C8BED8A8EA58E8BD7
:1023A0008FA58F8B88A9888FE1964CAD5DAD6EAD02
:1023B0007FADE197411551056105710509F467C0CD
:1023C00089892A893B894C895D89AE89BF89188DA5
:1023D000F82FF19591E01F1608F090E0822F81957B
:1023E00021E0181608F020E0E82FE91B91E08E1795
:1023F00008F090E0292B832F819531E0181608F022
:1024000030E0782F721B91E0871708F090E0392BAD
:10241000842F819521E0181608F020E0682F631BB7
:1024200091E0861708F090E0292B852F819531E007
:10243000181608F030E0582F521B91E0851708F06D
:1024400090E0392B8A2F819521E0181608F020E0C2
:10245000482F431B91E0841708F090E0292B8B2F25
:10246000819591E0181608F090E0382F321B21E09A
:10247000831708F020E0922B812F8195891BF98B1F
:10248000EA8B7B8B6C8B5D8B4E8B3F8B888F298986
:102490003A894B895C896D897E898F89988DC95865
:1024A000DF4FE2E10C943A31A0E0B0E0EAE5F2E17E
:1024B0000C941E31DC012B01FA019C91923008F43E
:1024C00039C1EB018881823008F433C1943069F45A
:1024D000843009F02FC111969C911197898198172A
:1024E00009F428C1A5E8B0E025C1843009F421C170
:1024F0008230A9F4923009F01DC19A01AD0188E043
:10250000EA010990AE01E90109929E018150C1F7EB
:10251000E201898111969C918923818308C19230BF
:1025200009F407C112962D903C901397EB018A8114
:102530009B811496AD90BD90CD90DC901797EC8068
:10254000FD800E811F819101281B390BB90137FFD6
:1025500004C066277727621B730B603271050CF08D
:1025600061C0121613066CF537014801062E04C02F
:1025700096948794779467940A94D2F721E030E098
:1025800040E050E004C0220F331F441F551F6A95DE
:10259000D2F721503040404050402E213F2140236F
:1025A0005123211531054105510521F021E030E08D
:1025B00040E050E079018A01E628F7280829192926
:1025C0003CC0232BD1F1260E371E35014601062EC5
:1025D00004C096948794779467940A94D2F721E084
:1025E00030E040E050E004C0220F331F441F551F6D
:1025F0006A95D2F721503040404050402A213B217B
:102600004C215D21211531054105510521F021E0C5
:1026100030E040E050E059016A01A628B728C828F8
:10262000D9280BC0821593052CF01C01AA24BB24C9
:10263000650103C0EE24FF24870111969C91D2010D
:1026400011968C91981709F445C0992339F0A80187
:1026500097012A193B094C095D0906C0A60195019D
:102660002E193F09400B510B57FD08C011823382D0
:10267000228224833583468357831DC081E0818372
:102680003382228288279927DC01821B930BA40BBB
:10269000B50B84839583A683B7830DC0220F331FA8
:1026A000441F551F2483358346835783828193813A
:1026B0000197938382832481358146815781DA0192
:1026C000C9010197A109B1098F5F9F4FAF4FBF4368
:1026D00028F30BC0918333822282EA0CFB1C0C1D71
:1026E0001D1DE482F5820683178383E080832481A5
:1026F00035814681578157FF1AC0C901AA2797FD26
:10270000A095BA2F81709070A070B07056954795C3
:1027100037952795822B932BA42BB52B84839583F8
:10272000A683B78382819381019693838283DF019D
:1027300001C0D201CD01CDB7DEB7E2E10C943A3150
:10274000A0E2B0E0E6EAF3E10C942A3169837A83EF
:102750008B839C832D833E834F835887E9E0EE2E45
:10276000F12CEC0EFD1ECE010196B7010E94B116B0
:102770008E010F5E1F4FCE010596B8010E94B11663
:102780008A8991E089278A8BC701B801AE01475E2B
:102790005F4F0E9454120E94DC15A096E6E00C9454
:1027A0004631A0E2B0E0E7EDF3E10C942A31698311
:1027B0007A838B839C832D833E834F835887F9E0F4
:1027C000EF2EF12CEC0EFD1ECE010196B7010E94FA
:1027D000B1168E010F5E1F4FCE010596B8010E9403
:1027E000B116C701B801AE01475E5F4F0E94541297
:1027F0000E94DC15A096E6E00C944631A0E2B0E021
:10280000E4E0F4E10C941E3169837A838B839C832A
:102810002D833E834F835887CE010196BE01675FAB
:102820007F4F0E94B116CE010596BE016F5E7F4FAD
:102830000E94B1169985923088F089898230C8F05B
:10284000943019F4823051F404C0843029F4923069
:1028500081F485E890E0C6C0923049F420E09A8582
:102860008A89981321E02A87CE010996BBC082305D
:1028700049F420E09A858A89981321E02A8BCE01B9
:102880004196B0C02D843E844F8458886D887E88E0
:102890008F88988CEE24FF248701AA24BB2465012D
:1028A00040E050E060E070E0E0E0F0E0C101817005
:1028B0009070892BE9F0E60CF71C081D191D9A0190
:1028C000AB012A0D3B1D4C1D5D1D80E090E0A0E09A
:1028D000B0E0E614F7040805190520F481E090E063
:1028E000A0E0B0E0BA01A901480F591F6A1F7B1F81
:1028F000AA0CBB1CCC1CDD1C97FE08C081E090E03C
:10290000A0E0B0E0A82AB92ACA2ADB2A3196E03230
:10291000F10549F0660C771C881C991C5694479465
:1029200037942794C3CFFA85EA892B893C898B8514
:102930009C85280F391F2E5F3F4F17C0CA01817039
:102940009070892B61F016950795F794E79480E0D5
:1029500090E0A0E0B0E8E82AF92A0A2B1B2B769534
:102960006795579547952F5F3F4F77FDE7CF0CC091
:10297000440F551F661F771F17FD4160EE0CFF1CAB
:10298000001F111F21503040403090E0590790E067
:10299000690790E4790760F32B8F3C8FDB01CA0154
:1029A0008F779070A070B07080349105A105B1054B
:1029B00061F447FD0AC0E114F1040105110529F095
:1029C000405C5F4F6F4F7F4F40781A8EFE1711F0BB
:1029D00081E08A8F4D8F5E8F6F8F78A383E0898F20
:1029E000CE0149960E94DC15A096E2E10C943A31A2
:1029F000A8E1B0E0EEEFF4E10C942A3169837A8328
:102A00008B839C832D833E834F83588789E0E82EF8
:102A1000F12CEC0EFD1ECE010196B7010E94B116FD
:102A20008E010F5E1F4FCE010596B8010E94B116B0
:102A30008985823040F08989823028F0C701B80149
:102A40000E94291701C08FEF6896E6E00C9446318A
:102A5000A8E1B0E0EEE2F5E10C942A3169837A83D3
:102A60008B839C832D833E834F83588789E0E82E98
:102A7000F12CEC0EFD1ECE010196B7010E94B1169D
:102A80008E010F5E1F4FCE010596B8010E94B11650
:102A90008985823040F08989823028F0C701B801E9
:102AA0000E94291701C08FEF6896E6E00C9446312A
:102AB000A8E1B0E0EEE5F5E10C942A3169837A8370
:102AC0008B839C832D833E834F83588789E0E82E38
:102AD000F12CEC0EFD1ECE010196B7010E94B1163D
:102AE0008E010F5E1F4FCE010596B8010E94B116F0
:102AF0008985823040F08989823028F0C701B80189
:102B00000E94291701C081E06896E6E00C944631E6
:102B1000ACE0B0E0EEE8F5E10C942E3169837A8305
:102B20008B839C83CE010196BE016B5F7F4F0E9419
:102B3000B1168D81823061F1823050F1843021F400
:102B40008E81882351F12EC02F81388537FD20C01A
:102B50006E812F3131051CF06623F9F023C08EE120
:102B600090E0821B930B29853A854B855C8504C0D8
:102B700056954795379527958A95D2F76623B1F0F4
:102B800050954095309521953F4F4F4F5F4F0EC068
:102B900020E030E040E050E009C02FEF3FEF4FEF82
:102BA0005FE704C020E030E040E050E8B901CA012E
:102BB0002C96E2E00C944A31DF92EF92FF920F9351
:102BC0001F93FC01E480F58006811781D18080810C
:102BD000823048F480E090E0A0E1B0E0E82AF92AF1
:102BE0000A2B1B2BA5C0843009F49FC0823021F42E
:102BF000EE24FF24870105C0E114F104010511054D
:102C000019F4E0E0F0E096C0628173819FEF6238D2
:102C100079070CF05BC022E83FEF261B370B2A3107
:102C200031052CF020E030E040E050E02AC0B8014F
:102C3000A701022E04C076956795579547950A948B
:102C4000D2F781E090E0A0E0B0E004C0880F991FC7
:102C5000AA1FBB1F2A95D2F70197A109B1098E219E
:102C60009F21A023B1230097A105B10521F081E0A8
:102C700090E0A0E0B0E09A01AB01282B392B4A2B61
:102C80005B2BDA01C9018F779070A070B07080342F
:102C90009105A105B10539F427FF09C0205C3F4F1C
:102CA0004F4F5F4F04C0215C3F4F4F4F5F4FE0E0FD
:102CB000F0E02030A0E03A07A0E04A07A0E45A077D
:102CC00010F0E1E0F0E079018A0127C06038710579
:102CD00064F5FB01E158FF4FD801C7018F77907071
:102CE000A070B07080349105A105B10539F4E7FEFC
:102CF0000DC080E490E0A0E0B0E004C08FE390E07D
:102D0000A0E0B0E0E80EF91E0A1F1B1F17FF05C068
:102D100016950795F794E794319687E016950795F1
:102D2000F794E7948A95D1F705C0EE24FF24870134
:102D3000EFEFF0E06E2F679566276795902F9F77EE
:102D4000D794DD24D7948E2F8695492F462B582F64
:102D50005D29B701CA011F910F91FF90EF90DF909D
:102D60000895FC01DB01408151812281622F6F7740
:102D700070E0221F2227221F9381892F880F822B28
:102D8000282F30E0991F9927991F11969C9311972E
:102D900021153105A9F5411551056105710511F49C
:102DA00082E037C082E89FEF13969C938E93129730
:102DB0009A01AB0167E0220F331F441F551F6A952C
:102DC000D1F783E08C930DC0220F331F441F551F92
:102DD00012968D919C911397019713969C938E93C5
:102DE0001297203080E0380780E0480780E45807D9
:102DF00058F314962D933D934D935C931797089534
:102E00002F3F310579F4411551056105710519F41C
:102E100084E08C93089564FF03C081E08C9312C01A
:102E20001C9210C02F57304013963C932E9312974C
:102E300083E08C9387E0440F551F661F771F8A95A8
:102E4000D1F7706414964D935D936D937C931797AF
:102E500008951F93DC01FB019C91923008F447C058
:102E60008081823008F443C0943051F411961C9153
:102E7000843099F58181682F70E0611B71093FC032
:102E8000843021F0923031F48230B9F1818188238D
:102E900089F12DC011961C9111978230F1F081813A
:102EA0001817D9F412962D913C9113978281938132
:102EB0008217930794F028173907BCF014968D9168
:102EC0009D910D90BC91A02D248135814681578123
:102ED000281739074A075B0718F4112341F00AC085
:102EE00082179307A407B50740F4112319F061E096
:102EF00070E005C06FEF7FEF02C060E070E0CB01D3
:102F00001F910895DF93CF93CDB7DEB7EAE3F0E0EA
:102F10008FEF8083E7E3F0E08FEF8083E4E3F0E07E
:102F20008FEF8083E1E3F0E08FEF8083EBE3F0E06D
:102F30001082E8E3F0E01082E5E3F0E01082E2E3E3
:102F4000F0E01082CF91DF910895DF93CF93CDB75A
:102F5000DEB72D970FB6F894DEBF0FBECDBF8983C5
:102F60006A834B838981843008F008C18A81883064
:102F700008F004C18B81823008F000C18981282FBC
:102F800030E03D872C878C859D858130910509F443
:102F90004FC02C853D85223031052CF48C859D85D4
:102FA000009771F0EBC02C853D852230310509F486
:102FB00077C08C859D858330910509F4A9C0DEC05A
:102FC0008B81282F30E03B872A878A859B85009755
:102FD000D1F02A853B852130310509F0CFC0AAE325
:102FE000B0E0EAE3F0E08081482F8A81282F30E0CA
:102FF00081E090E0022E02C0880F991F0A94E2F748
:10300000842B8C93BBC0AAE3B0E0EAE3F0E08081BC
:10301000482F8A81282F30E081E090E0022E02C004
:10302000880F991F0A94E2F7809584238C93A6C099
:103030008B81282F30E039872887888599850097EC
:10304000D1F0288539852130310509F097C0A7E3F3
:10305000B0E0E7E3F0E08081482F8A81282F30E05C
:1030600081E090E0022E02C0880F991F0A94E2F7D7
:10307000842B8C9383C0A7E3B0E0E7E3F0E080818A
:10308000482F8A81282F30E081E090E0022E02C094
:10309000880F991F0A94E2F7809584238C936EC061
:1030A0008B81282F30E03F832E838E819F81009774
:1030B000D1F02E813F812130310509F05FC0A4E3BA
:1030C000B0E0E4E3F0E08081482F8A81282F30E0EF
:1030D00081E090E0022E02C0880F991F0A94E2F767
:1030E000842B8C934BC0A4E3B0E0E4E3F0E0808158
:1030F000482F8A81282F30E081E090E0022E02C024
:10310000880F991F0A94E2F7809584238C9336C028
:103110008B81282F30E03D832C838C819D8100970B
:10312000C9F02C813D812130310541F5A1E3B0E0AA
:10313000E1E3F0E08081482F8A81282F30E081E0B0
:1031400090E0022E02C0880F991F0A94E2F7842BA8
:103150008C9314C0A1E3B0E0E1E3F0E08081482F5C
:103160008A81282F30E081E090E0022E02C0880F93
:10317000991F0A94E2F7809584238C932D960FB6BD
:10318000F894DEBF0FBECDBFCF91DF910895DF93DE
:10319000CF93CDB7DEB72D970FB6F894DEBF0FBE35
:1031A000CDBF89836A834B838981843008F008C14D
:1031B0008A81883008F004C18B81823008F000C118
:1031C0008981282F30E03D872C878C859D85813033
:1031D000910509F44FC02C853D85223031052CF432
:1031E0008C859D85009771F0EBC02C853D85223044
:1031F000310509F477C08C859D858330910509F4EC
:10320000A9C0DEC08B81282F30E03B872A878A85C2
:103210009B850097D1F02A853B852130310509F047
:10322000CFC0ABE3B0E0EBE3F0E08081482F8A81D0
:10323000282F30E081E090E0022E02C0880F991F15
:103240000A94E2F7842B8C93BBC0ABE3B0E0EBE3D2
:10325000F0E08081482F8A81282F30E081E090E0E3
:10326000022E02C0880F991F0A94E2F780958423EA
:103270008C93A6C08B81282F30E0398728878885DA
:1032800099850097D1F0288539852130310509F0DD
:1032900097C0A8E3B0E0E8E3F0E08081482F8A819E
:1032A000282F30E081E090E0022E02C0880F991FA5
:1032B0000A94E2F7842B8C9383C0A8E3B0E0E8E3A0
:1032C000F0E08081482F8A81282F30E081E090E073
:1032D000022E02C0880F991F0A94E2F7809584237A
:1032E0008C936EC08B81282F30E03F832E838E819C
:1032F0009F810097D1F02E813F812130310509F067
:103300005FC0A5E3B0E0E5E3F0E08081482F8A816B
:10331000282F30E081E090E0022E02C0880F991F34
:103320000A94E2F7842B8C934BC0A5E3B0E0E5E36D
:10333000F0E08081482F8A81282F30E081E090E002
:10334000022E02C0880F991F0A94E2F78095842309
:103350008C9336C08B81282F30E03D832C838C8169
:103360009D810097C9F02C813D812130310541F5C7
:10337000A2E3B0E0E2E3F0E08081482F8A81282FC9
:1033800030E081E090E0022E02C0880F991F0A947D
:10339000E2F7842B8C9314C0A2E3B0E0E2E3F0E008
:1033A0008081482F8A81282F30E081E090E0022E32
:1033B00002C0880F991F0A94E2F7809584238C93AA
:1033C0002D960FB6F894DEBF0FBECDBFCF91DF9123
:1033D0000895DF93CF9300D000D0CDB7DEB78983B7
:1033E0006A838981843008F072C08A81883008F04D
:1033F0006EC08981282F30E03C832B838B819C8198
:103400008130910549F12B813C81223031052CF42A
:103410008B819C81009761F05AC02B813C812230C6
:10342000310571F18B819C8183309105E9F14FC0A9
:10343000ABE3B0E0EBE3F0E08081482F8A81282FF6
:1034400030E081E090E0022E02C0880F991F0A94BC
:10345000E2F784278C933BC0A8E3B0E0E8E3F0E018
:103460008081482F8A81282F30E081E090E0022E71
:1034700002C0880F991F0A94E2F784278C9327C013
:10348000A5E3B0E0E5E3F0E08081482F8A81282FB2
:1034900030E081E090E0022E02C0880F991F0A946C
:1034A000E2F784278C9313C0A2E3B0E0E2E3F0E0FC
:1034B0008081482F8A81282F30E081E090E0022E21
:1034C00002C0880F991F0A94E2F784278C930F900B
:1034D0000F900F900F90CF91DF910895DF93CF93CE
:1034E00000D000D0CDB7DEB789836A83898184306C
:1034F00008F072C08A81883008F06EC08981282F58
:1035000030E03C832B838B819C818130910549F194
:103510002B813C81223031052CF48B819C810097DA
:1035200061F05AC02B813C812230310571F18B81D1
:103530009C8183309105E9F14FC0AAE3B0E0EAE352
:10354000F0E08081482F8A81282F30E081E090E0F0
:10355000022E02C0880F991F0A94E2F784278C93E9
:103560003BC0A7E3B0E0E7E3F0E08081482F8A8129
:10357000282F30E081E090E0022E02C0880F991FD2
:103580000A94E2F784278C9327C0A4E3B0E0E4E335
:10359000F0E08081482F8A81282F30E081E090E0A0
:1035A000022E02C0880F991F0A94E2F784278C9399
:1035B00013C0A1E3B0E0E1E3F0E08081482F8A810D
:1035C000282F30E081E090E0022E02C0880F991F82
:1035D0000A94E2F784278C930F900F900F900F902E
:1035E000CF91DF910895DF93CF9300D000D0CDB776
:1035F000DEB789836A838981843090F58981282F99
:1036000030E03C832B838B819C8181309105D1F00C
:103610002B813C81223031052CF48B819C810097D9
:1036200061F01EC02B813C812230310581F08B81FD
:103630009C818330910581F013C0EBE3F0E08A8137
:1036400080830EC0E8E3F0E08A81808309C0E5E36F
:10365000F0E08A81808304C0E2E3F0E08A81808325
:103660000F900F900F900F90CF91DF910895DF93FF
:10367000CF9300D000D0CDB7DEB789836A8389812C
:10368000843090F58981282F30E03C832B838B8117
:103690009C8181309105D1F02B813C812230310514
:1036A0002CF48B819C81009761F01EC02B813C81A2
:1036B0002230310581F08B819C818330910581F02E
:1036C00013C0EAE3F0E08A8180830EC0E7E3F0E014
:1036D0008A81808309C0E4E3F0E08A81808304C0AA
:1036E000E1E3F0E08A8180830F900F900F900F90BC
:1036F000CF91DF910895DF93CF9300D000D00F9248
:10370000CDB7DEB78A836B838A81843008F06BC0C3
:103710008B81883008F067C08A81282F30E03D8394
:103720002C834C815D814130510541F18C819D811B
:103730008230910534F42C813D812115310561F0F1
:1037400052C04C815D814230510551F18C819D8187
:1037500083309105B9F147C0E9E3F0E08081282F7B
:1037600030E08B81882F90E0A90102C055954795E4
:103770008A95E2F7CA018170898335C0E6E3F0E0FB
:103780008081282F30E08B81882F90E0A90102C032
:10379000559547958A95E2F7CA018170898323C0C0
:1037A000E3E3F0E08081282F30E08B81882F90E0E8
:1037B000A90102C0559547958A95E2F7CA01817023
:1037C000898311C0E0E3F0E08081282F30E08B8115
:1037D000882F90E0A90102C0559547958A95E2F798
:1037E000CA018170898389810F900F900F900F908B
:1037F0000F90CF91DF910895DF93CF93CDB7DEB7D0
:1038000082E064E041E00E94A51782E065E041E0CB
:103810000E94A51782E066E041E00E94A51782E0C1
:1038200067E041E00E94A51782E060E040E00E946E
:10383000A51782E061E040E00E94A51782E062E007
:1038400040E00E94A51782E063E040E00E94A517D7
:1038500082E06FEF0E94F31ACF91DF910895DF931A
:10386000CF93CDB7DEB767970FB6F894DEBF0FBE24
:10387000CDBF8FEF8C8B1B8A1A8ADCC0198A1BC0C4
:103880008989882F90E0FC01EF55FE4F80818F8B56
:103890008989282F30E01E8A8A899B892817390751
:1038A00011F081E08E8B82E06F894E890E94C718EB
:1038B00089898F5F898B8989843010F3188A1F86E4
:1038C000AEC08F859889FC01E356FE4F908182E05F
:1038D000692F0E947B1B882309F09CC080E090E048
:1038E000A0EFB1E48B879C87AD87BE876B857C8515
:1038F0008D859E8520E030E04AEF54E40E94FE135F
:10390000DC01CB018F839887A987BA876F8178857F
:1039100089859A8520E030E040E85FE30E945815F1
:1039200088232CF481E090E09E838D833FC06F81DB
:10393000788589859A8520E03FEF4FE757E40E941C
:10394000F81418164CF56B857C858D859E8520E0D6
:1039500030E040E251E40E94FE13DC01CB01BC01E7
:10396000CD010E94C301DC01CB019E838D830FC07A
:1039700088EC90E09C838B838B819C810197F1F78D
:103980009C838B838D819E8101979E838D838D8106
:103990009E81009769F714C06F81788589859A8523
:1039A0000E94C301DC01CB019E838D838D819E81AA
:1039B0009A83898389819A810197F1F79A83898310
:1039C0008F859889FC01E356FE4F908182E0692F34
:1039D0000E947B1B8823F1F48F8598892A893B8973
:1039E000880F991F880F991F820F931FFC01E357BF
:1039F000FE4F80818C8B8F859889FC01E356FE4FAA
:103A0000908182E0692F0E947B1B8823A1F38C891F
:103A10008D8B18C08F8598890196988B8F878F859D
:103A200098898430910508F44CCF8A899B89019646
:103A30009B8B8A8B8A899B898430910508F41ECFE1
:103A40008C898D8B8D8967960FB6F894DEBF0FBE7B
:103A5000CDBFCF91DF910895DF93CF93CDB7DEB780
:103A6000E8970FB6F894DEBF0FBECDBF80E06FEFD2
:103A70000E94371B80E060E00E94F31A81E06FEF44
:103A80000E94371B81E060E00E94F31A80E090E022
:103A9000A0E0B2E48DAB9EABAFABB8AF6DA97EA991
:103AA0008FA998AD20E030E04AEF54E40E94FE1365
:103AB000DC01CB0189AB9AABABABBCAB69A97AA9F2
:103AC0008BA99CA920E030E040E85FE30E945815F4
:103AD00088232CF481E090E098AB8FA73FC069A9C0
:103AE0007AA98BA99CA920E03FEF4FE757E40E94F9
:103AF000F81418164CF56DA97EA98FA998AD20E091
:103B000030E040E251E40E94FE13DC01CB01BC0135
:103B1000CD010E94C301DC01CB0198AB8FA70FC080
:103B200088EC90E09EA78DA78DA59EA50197F1F743
:103B30009EA78DA78FA598A9019798AB8FA78FA552
:103B400098A9009769F714C069A97AA98BA99CA9BB
:103B50000E94C301DC01CB0198AB8FA78FA598A968
:103B60009CA78BA78BA59CA50197F1F79CA78BA77A
:103B700088E30E94231F80E090E0A0E8BFE38FA3CA
:103B800098A7A9A7BAA76FA178A589A59AA520E0AB
:103B900030E04AEF54E40E94FE13DC01CB018BA31A
:103BA0009CA3ADA3BEA36BA17CA18DA19EA120E08F
:103BB00030E040E85FE30E94581588232CF481E050
:103BC00090E09AA389A33FC06BA17CA18DA19EA187
:103BD00020E03FEF4FE757E40E94F81418164CF529
:103BE0006FA178A589A59AA520E030E040E251E4D4
:103BF0000E94FE13DC01CB01BC01CD010E94C30178
:103C0000DC01CB019AA389A30FC088EC90E098A3B4
:103C10008F8F8F8D98A10197F1F798A38F8F89A12E
:103C20009AA101979AA389A389A19AA1009769F7FC
:103C300014C06BA17CA18DA19EA10E94C301DC01D7
:103C4000CB019AA389A389A19AA19E8F8D8F8D8D77
:103C50009E8D0197F1F79E8F8D8F8FE00E94231F1D
:103C600080E090E0A0E8BFE3898F9A8FAB8FBC8F94
:103C7000698D7A8D8B8D9C8D20E030E04AEF54E485
:103C80000E94FE13DC01CB018D8B9E8BAF8BB88F16
:103C90006D897E898F89988D20E030E040E85FE370
:103CA0000E94581588232CF481E090E09C8B8B8B2C
:103CB0003FC06D897E898F89988D20E03FEF4FE767
:103CC00057E40E94F81418164CF5698D7A8D8B8D87
:103CD0009C8D20E030E040E251E40E94FE13DC01C4
:103CE000CB01BC01CD010E94C301DC01CB019C8B47
:103CF0008B8B0FC088EC90E09A8B898B89899A898D
:103D00000197F1F79A8B898B8B899C8901979C8B02
:103D10008B8B8B899C89009769F714C06D897E898C
:103D20008F89988D0E94C301DC01CB019C8B8B8B0A
:103D30008B899C89988B8F878F8598890197F1F75C
:103D4000988B8F8781E00E94231F80E090E0A0E0A5
:103D5000B0E48B879C87AD87BE876B857C858D851E
:103D60009E8520E030E04AEF54E40E94FE13DC011F
:103D7000CB018F839887A987BA876F8178858985DA
:103D80009A8520E030E040E85FE30E9458158823E0
:103D90002CF481E090E09E838D833FC06F81788515
:103DA00089859A8520E03FEF4FE757E40E94F81499
:103DB00018164CF56B857C858D859E8520E030E05E
:103DC00040E251E40E94FE13DC01CB01BC01CD01B5
:103DD0000E94C301DC01CB019E838D830FC088EC60
:103DE00090E09C838B838B819C810197F1F79C836E
:103DF0008B838D819E8101979E838D838D819E8192
:103E0000009769F714C06F81788589859A850E942B
:103E1000C301DC01CB019E838D838D819E819A83BA
:103E2000898389819A810197F1F79A83898386E052
:103E30000E94231FE8960FB6F894DEBF0FBECDBFD9
:103E4000CF91DF910895DF93CF93CDB7DEB72F9752
:103E50000FB6F894DEBF0FBECDBF8F8781E060E064
:103E600040E00E94C71881E061E040E00E94C7186E
:103E700080E06F850E94F31A81E062E041E00E94D9
:103E8000C71880E090E0A0E0B0E48B879C87AD8706
:103E9000BE876B857C858D859E8520E030E04AEF6E
:103EA00054E40E94FE13DC01CB018F839887A9871D
:103EB000BA876F81788589859A8520E030E040E86F
:103EC0005FE30E94581588232CF481E090E09E83E4
:103ED0008D833FC06F81788589859A8520E03FEF8B
:103EE0004FE757E40E94F81418164CF56B857C8553
:103EF0008D859E8520E030E040E251E40E94FE1373
:103F0000DC01CB01BC01CD010E94C301DC01CB016E
:103F10009E838D830FC088EC90E09C838B838B8184
:103F20009C810197F1F79C838B838D819E81019702
:103F30009E838D838D819E81009769F714C06F8168
:103F4000788589859A850E94C301DC01CB019E8317
:103F50008D838D819E819A83898389819A8101973E
:103F6000F1F79A83898381E062E040E00E94C718FC
:103F70002F960FB6F894DEBF0FBECDBFCF91DF9165
:103F80000895DF93CF93CDB7DEB72F970FB6F89490
:103F9000DEBF0FBECDBF8F8781E060E041E00E94B1
:103FA000C71881E061E040E00E94C71880E06F859B
:103FB0000E94F31A81E062E041E00E94C71880E0AD
:103FC00090E0A0E0B0E48B879C87AD87BE876B85CF
:103FD0007C858D859E8520E030E04AEF54E40E9488
:103FE000FE13DC01CB018F839887A987BA876F8185
:103FF000788589859A8520E030E040E85FE30E947B
:10400000581588232CF481E090E09E838D833FC077
:104010006F81788589859A8520E03FEF4FE757E4E7
:104020000E94F81418164CF56B857C858D859E854D
:1040300020E030E040E251E40E94FE13DC01CB01BD
:10404000BC01CD010E94C301DC01CB019E838D83A5
:104050000FC088EC90E09C838B838B819C810197BF
:10406000F1F79C838B838D819E8101979E838D8345
:104070008D819E81009769F714C06F81788589854D
:104080009A850E94C301DC01CB019E838D838D81C3
:104090009E819A83898389819A810197F1F79A8316
:1040A000898381E062E040E00E94C7182F960FB636
:1040B000F894DEBF0FBECDBFCF91DF910895DF939F
:1040C000CF9300D0CDB7DEB79A8389830BC0E98147
:1040D000FA81208189819A8101969A838983822F2E
:1040E0000E94C11FE981FA818081882381F70F90A6
:1040F0000F90CF91DF910895DF93CF93CDB7DEB7C7
:104100002E970FB6F894DEBF0FBECDBF81E00E94A0
:10411000231F80E090E0A0E0B0E48B879C87AD8710
:10412000BE876B857C858D859E8520E030E04AEFDB
:1041300054E40E94FE13DC01CB018F839887A9878A
:10414000BA876F81788589859A8520E030E040E8DC
:104150005FE30E94581588232CF481E090E09E8351
:104160008D833FC06F81788589859A8520E03FEFF8
:104170004FE757E40E94F81418164CF56B857C85C0
:104180008D859E8520E030E040E251E40E94FE13E0
:10419000DC01CB01BC01CD010E94C301DC01CB01DC
:1041A0009E838D830FC088EC90E09C838B838B81F2
:1041B0009C810197F1F79C838B838D819E81019770
:1041C0009E838D838D819E81009769F714C06F81D6
:1041D000788589859A850E94C301DC01CB019E8385
:1041E0008D838D819E819A83898389819A810197AC
:1041F000F1F79A8389832E960FB6F894DEBF0FBE2F
:10420000CDBFCF91DF910895DF93CF93CDB7DEB7C8
:1042100062970FB6F894DEBF0FBECDBF8F87688B55
:104220008F85282F30E03A8B298B89899A898130B4
:10423000910531F029893A892230310531F009C0E0
:10424000888981580E94231F04C0888981540E9454
:10425000231F80E090E0A0E8BFE38B879C87AD87B9
:10426000BE876B857C858D859E8520E030E04AEF9A
:1042700054E40E94FE13DC01CB018F839887A98749
:10428000BA876F81788589859A8520E030E040E89B
:104290005FE30E94581588232CF481E090E09E8310
:1042A0008D833FC06F81788589859A8520E03FEFB7
:1042B0004FE757E40E94F81418164CF56B857C857F
:1042C0008D859E8520E030E040E251E40E94FE139F
:1042D000DC01CB01BC01CD010E94C301DC01CB019B
:1042E0009E838D830FC088EC90E09C838B838B81B1
:1042F0009C810197F1F79C838B838D819E8101972F
:104300009E838D838D819E81009769F714C06F8194
:10431000788589859A850E94C301DC01CB019E8343
:104320008D838D819E819A83898389819A8101976A
:10433000F1F79A83898362960FB6F894DEBF0FBEB9
:10434000CDBFCF91DF910895EF92FF920F931F930E
:10435000DF93CF93CDB7DEB728970FB6F894DEBFC3
:104360000FBECDBF6D837E838F83988781E090E001
:10437000A0E0B0E089839A83AB83BC838D819E816A
:10438000AF81B8850097A105B105D1F580E30E9402
:10439000C11F36C089819A81AB81BC812AE030E09F
:1043A00040E050E0BC01CD010E94C2307B018C0195
:1043B0008D819E81AF81B8852AE030E040E050E0F9
:1043C000BC01CD010E94E130DC01CB018E0D9F1DAF
:1043D000A01FB11F89839A83AB83BC838D819E818B
:1043E000AF81B8852AE030E040E050E0BC01CD016B
:1043F0000E94E130DA01C9018D839E83AF83B887C3
:104400008D819E81AF81B8850097A105B10511F618
:1044100023C089819A81AB81BC812AE030E040E0F1
:1044200050E0BC01CD010E94E130DC01CB01805D98
:104430000E94C11F89819A81AB81BC812AE030E052
:1044400040E050E0BC01CD010E94E130DA01C90139
:1044500089839A83AB83BC838D819E81AF81B8852C
:1044600081309105A105B105A1F628960FB6F89403
:10447000DEBF0FBECDBFCF91DF911F910F91FF9097
:10448000EF900895EF92FF920F931F93DF93CF93D6
:10449000CDB7DEB728970FB6F894DEBF0FBECDBFFD
:1044A0006D837E838F83988781E090E0A0E0B0E009
:1044B00089839A83AB83BC838D819E81AF81B885CC
:1044C0000097A105B10519F480E30E94C11F8D81F9
:1044D0009E81AF81B885BB230CF049C08DE20E945C
:1044E000C11F8D819E81AF81B885B095A0959095B3
:1044F00081959F4FAF4FBF4F8D839E83AF83B8870A
:1045000036C089819A81AB81BC812AE030E040E0ED
:1045100050E0BC01CD010E94C2307B018C018D8135
:104520009E81AF81B8852AE030E040E050E0BC01D8
:10453000CD010E940331DC01CB018E0D9F1DA01F18
:10454000B11F89839A83AB83BC838D819E81AF81A8
:10455000B8852AE030E040E050E0BC01CD010E9487
:104560000331DA01C9018D839E83AF83B8878D81C2
:104570009E81AF81B8850097A105B10511F623C0D2
:1045800089819A81AB81BC812AE030E040E050E033
:10459000BC01CD010E94E130DC01CB01805D0E94B5
:1045A000C11F89819A81AB81BC812AE030E040E063
:1045B00050E0BC01CD010E94E130DA01C9018983DC
:1045C0009A83AB83BC8389819A81AB81BC81813022
:1045D0009105A105B105A1F628960FB6F894DEBFA6
:1045E0000FBECDBFCF91DF911F910F91FF90EF9044
:1045F0000895DF93CF93CDB7DEB727970FB6F89422
:10460000DEBF0FBECDBF9C838B836D834E832F8314
:104610008D81882F90E0880F991F880F991F880F30
:10462000991F8A838A8180648A838A810E94231FDA
:1046300019820EC08981282F30E08B819C81FC017A
:10464000E20FF31F80810E94C11F89818F5F8983E0
:104650008981883078F38E816F810E9404218D8159
:104660000E94C11F27960FB6F894DEBF0FBECDBFC4
:10467000CF91DF910895AF92BF92CF92DF92EF92E8
:10468000FF920F931F93DF93CF93CDB7DEB7CC5636
:10469000D0400FB6F894DEBF0FBECDBF9C8B8B8B86
:1046A0007E8B6D8B1A8A198A188A1F861F8218863C
:1046B00019861A861B861C861D861E861E821D82F2
:1046C000CBC31F82188619861A861B861C861D86F8
:1046D0001E86188A1F861C821B8225C04D815E8122
:1046E000CA01880F991F9C01220F331F220F331F0D
:1046F000820F931F9C01240F351F8B819C81280FF3
:10470000391F8B899C89FC01E20FF31F808188236C
:1047100079F08F8598890196988B8F878B819C8102
:1047200001969C838B838B819C8184319105B0F2AF
:1047300081E090E09A83898367C34D815E81CA01DD
:10474000880F991F9C01220F331F220F331F820FE6
:10475000931F9C01240F351F89819A81820F931F1B
:104760009C01215030408B899C89FC01E20FF31F92
:104770008081882F90E0C0979A8B898B2F81388514
:1047800049855A856B857C858D859E85A22EB32EA5
:10479000C42ED52EE62EF72E082F192F2A2D3B2DAD
:1047A0004C2D5D2D6E2D7F2D802F912F01E00E94CD
:1047B00044012FA338A749A75AA76BA77CA78DA7A9
:1047C0009EA72FA138A549A55AA56BA57CA58DA5A7
:1047D0009EA502E00E9444012FA738AB49AB5AAB1B
:1047E0006BAB7CAB8DAB9EAB0FA11FA5010F0FABCD
:1047F00021E02FAF3FA94FA1341708F01FAE58A5F5
:1048000068A9560F58AF71E021967FAF219788AD08
:1048100098A5891718F021961FAE21970FAD18ADF6
:10482000010F22960FAF229721E023962FAF2397F7
:1048300022963FAD229748AD341718F023961FAE4D
:10484000239721965FAD219723966FAD2397562B23
:1048500021965FAF219722967FAD229778AF89A5E9
:1048600099A9890F89AF01E024960FAF249719AD5C
:1048700029A5121718F024961FAE249721963FAD54
:10488000219749AD340F25963FAF259751E02696E5
:104890005FAF269725966FAD259779AD671718F00E
:1048A00026961FAE269724968FAD249726969FAD09
:1048B0002697892B24968FAF249725960FAD2597A1
:1048C00009AF1AA52AA9120F1AAF31E027963FAFF8
:1048D00027974AAD5AA5451718F027961FAE279778
:1048E00024966FAD24977AAD670F28966FAF2897FF
:1048F00081E029968FAF299728969FAD28970AAD1A
:10490000901718F029961FAE299727961FAD279765
:1049100029962FAD2997122B27961FAF27972896F8
:104920003FAD28973AAF4BA55BA9450F4BAF61E070
:104930002A966FAF2A977BAD8BA5781718F02A9629
:104940001FAE2A9727969FAD27970BAD900F2B96FA
:104950009FAF2B9711E02C961FAF2C972B962FAD66
:104960002B973BAD231718F02C961FAE2C972A9649
:104970004FAD2A972C965FAD2C97452B2A964FAFBB
:104980002A972B966FAD2B976BAF7CA58CA9780FD0
:104990007CAF91E02D969FAF2D970CAD1CA5011714
:1049A00018F02D961FAE2D972A962FAD2A973CAD65
:1049B000230F2E962FAF2E9741E02F964FAF2F97B4
:1049C0002E965FAD2E976CAD561718F02F961FAE32
:1049D0002F972D967FAD2D972F968FAD2F97782BF4
:1049E0002D967FAF2D972E969FAD2E979CAF0DA540
:1049F0001DA9010F0DAF21E060962FAF60973DAD6F
:104A00004DA5341718F060961FAE60972D965FADD8
:104A10002D976DAD560F61965FAF619771E062960D
:104A20007FAF629761968FAD61979DAD891718F042
:104A300062961FAE629760960FAD609762961FAD4B
:104A40006297012B60960FAF609761962FAD6197CB
:104A50002DAF3EA54EA9340F3EAF60968FAD609747
:104A60005EAD850F8EAF6FA96F8F78AD78A389ADDE
:104A700089A39AAD9AA30BAD0BA31CAD1CA32DADBE
:104A80002DA33EAD3EA389899A898C0120E030E0B8
:104A900040E050E060E070E00F8B188F298F3A8F74
:104AA0004B8F5C8F6D8F7E8F1F8D2F89120F6396BA
:104AB0001FAF639731E06B963FAF6B9763964FAD37
:104AC00063975F8D451718F06B961FAE6B9768A1C3
:104AD000788D670F64966FAF649781E06C968FAFA7
:104AE0006C9764969FAD649708A1901718F06C9628
:104AF0001FAE6C976B961FAD6B9764962FAD649746
:104B0000120F6D961FAF6D9731E06E963FAF6E97A7
:104B10006D964FAD6D9764965FAD6497451718F02D
:104B20006E961FAE6E976C966FAD6C976E967FAD5E
:104B30006E97672B6C966FAF6C976D968FAD6D9778
:104B400064968FAF649799A1098D900F65969FAF7A
:104B5000659711E06F961FAF6F9765962FAD6597BC
:104B600039A1231718F06F961FAE6F976C964FAD53
:104B70006C9765965FAD6597450FA0964FAFA09770
:104B800061E0A1966FAFA197A0967FADA0976596C3
:104B90008FAD6597781718F0A1961FAEA1976F9605
:104BA0009FAD6F97A1960FADA197902B6F969FAF7A
:104BB0006F97A0961FADA09765961FAF65972AA126
:104BC0003A8D230F66962FAF669741E0A2964FAFBE
:104BD000A29766965FAD66976AA1561718F0A296DF
:104BE0001FAEA2976F967FAD6F9766968FAD669753
:104BF000780FA3967FAFA39791E0A4969FAFA49759
:104C0000A3960FADA39766961FAD6697011718F090
:104C1000A4961FAEA497A2962FADA297A4963FADDF
:104C2000A497232BA2962FAFA297A3964FADA3973D
:104C300066964FAF66975BA16B8D560F67965FAF19
:104C4000679771E0A5967FAFA59767968FAD679739
:104C50009BA1891718F0A5961FAEA597A2960FAD38
:104C6000A29767961FAD6797010FA6960FAFA697FD
:104C700021E0A7962FAFA797A6963FADA697679678
:104C80004FAD6797341718F0A7961FAEA797A59654
:104C90005FADA597A7966FADA797562BA5965FAF6B
:104CA000A597A6967FADA69767967FAF67978CA1CD
:104CB0009C8D890F68968FAF689701E0A8960FAF1B
:104CC000A89768961FAD68972CA1121718F0A896A0
:104CD0001FAEA897A5963FADA59768964FAD68976C
:104CE000340FA9963FAFA99751E0AA965FAFAA9754
:104CF000A9966FADA99768967FAD6897671718F06A
:104D0000AA961FAEAA97A8968FADA897AA969FAD10
:104D1000AA97892BA8968FAFA897A9960FADA997A8
:104D200068960FAF68971DA12D8D120F69961FAF62
:104D3000699731E0AB963FAFAB9769964FAD6997F6
:104D40005DA1451718F0AB961FAEAB97A8966FAD57
:104D5000A89769967FAD6997670FAC966FAFAC97D0
:104D600081E0AD968FAFAD97AC969FADAC9769964D
:104D70000FAD6997901718F0AD961FAEAD97AB9633
:104D80001FADAB97AD962FADAD97122BAB961FAF66
:104D9000AB97AC963FADAC9769963FAF69974EA184
:104DA0005E8D450F6A964FAF6A97AB968FADAB9706
:104DB0006A966FAD6A97860F6A968FAF6A97639609
:104DC0007FAD63977F8364968FAD64978887659680
:104DD0009FAD6597998766960FAD66970A87679628
:104DE0001FAD67971B8768962FAD68972C876996CC
:104DF0003FAD69973D876A964FAD6A974E87898127
:104E00009A8101969A83898329813A818F8598892D
:104E10008217930708F091CC8D819E81880F991F8E
:104E2000880F991F880F991FFC01EA55FE4F8F814B
:104E3000808388858183898582838A8583838B8526
:104E400084838C8585838D8586838E8587838D81FC
:104E50009E8101969E838D832D813E818D899E89C1
:104E60008217930708F02DCC86EA91E0C459DF4FF2
:104E70000FB6F894DEBF0FBECDBFCF91DF911F916B
:104E80000F91FF90EF90DF90CF90BF90AF9008957B
:104E9000AF92BF92CF92DF92EF92FF920F931F9348
:104EA000DF93CF93CDB7DEB7C155D0400FB6F8949E
:104EB000DEBF0FBECDBF2C8F3D8F4E8F5F8F68A39F
:104EC00079A38AA39BA31D821C821B821A8219824A
:104ED0008C8D9D8D892B9E8D892B9F8D892B98A1E3
:104EE000892B99A1892B9AA1892B9BA1892B882396
:104EF00051F480E38093F6011092F70186EF91E080
:104F00009DA38CA33BC28BA18823D4F08BA18823C3
:104F100009F0ECC18AA1882309F0E8C189A188239E
:104F200009F0E4C188A1882309F0E0C18F8D8823AE
:104F300009F0DCC18E8D882309F0D8C19D8DD6C1C2
:104F400081E089831FA218A619A61AA61BA61CA673
:104F50001DA61EA68C8D8FA79D8D98AB8E8D89ABBF
:104F60009F8D9AAB88A18BAB99A19CAB8AA18DAB8D
:104F70009BA19EAB8FA19FA5891B8FAB81E08FAFBB
:104F80009FA98FA1891708F01FAE98A588A9981B23
:104F900098AF91E021969FAF219788AD98A598177B
:104FA00018F021961FAE219788AD9FAD891B2296E0
:104FB0008FAF229781E023968FAF239722969FADE4
:104FC000229788AD891718F023961FAE2397219654
:104FD0009FAD219723968FAD2397982B21969FAF56
:104FE000219722969FAD229798AF89A599A9891BF1
:104FF00089AF81E024968FAF249799AD89A5891751
:1050000018F024961FAE249799AD21968FAD219765
:10501000981B25969FAF259791E026969FAF2697E0
:1050200025968FAD259799AD981718F026961FAE47
:10503000269724968FAD249726969FAD2697892B89
:1050400024968FAF249725968FAD259789AF9AA583
:105050008AA9981B9AAF91E027969FAF27978AADB0
:105060009AA5981718F027961FAE27978AAD249611
:105070009FAD2497891B28968FAF289781E02996AA
:105080008FAF299728969FAD28978AAD891718F07A
:1050900029961FAE299727969FAD279729968FAD02
:1050A0002997982B27969FAF279728969FAD2897EB
:1050B0009AAF8BA59BA9891B8BAF81E02A968FAFF6
:1050C0002A979BAD8BA5891718F02A961FAE2A97B1
:1050D0009BAD27968FAD2797981B2B969FAF2B974D
:1050E00091E02C969FAF2C972B968FAD2B979BAD75
:1050F000981718F02C961FAE2C972A968FAD2A97EA
:105100002C969FAD2C97892B2A968FAF2A972B969A
:105110008FAD2B978BAF9CA58CA9981B9CAF91E072
:105120002D969FAF2D978CAD9CA5981718F02D96B6
:105130001FAE2D978CAD2A969FAD2A97891B2E9670
:105140008FAF2E9781E02F968FAF2F972E969FAD22
:105150002E978CAD891718F02F961FAE2F972D968E
:105160009FAD2D972F968FAD2F97982B2D969FAF94
:105170002D972E969FAD2E979CAF8DA59DA9891B2F
:105180008DAF81E060968FAF60979DAD8DA589173B
:1051900018F060961FAE60979DAD2D968FAD2D9740
:1051A000981B61969FAF619791E062969FAF62975F
:1051B00061968FAD61979DAD981718F062961FAEFE
:1051C000629760968FAD609762969FAD6297892BCC
:1051D00060968FAF609761968FAD61978DAF9EA5FA
:1051E0008EA9981B9EAF8EAD60969FAD6097891B70
:1051F0008EAF8FA98C8F98AD9D8F89AD8E8F9AAD14
:105200009F8F8BAD88A39CAD99A38DAD8AA39EADD6
:105210009BA36CC0AC8CBD8CCE8CDF8CE8A0F9A0BD
:105220000AA11BA12A2D3B2D4C2D5D2D6E2D7F2D0E
:10523000802F912F0F2EFAE0AF2EF02DBB24CC241F
:10524000DD24EE24FF2400E010E00E94170AA22EC5
:10525000B32EC42ED52EE62EF72E082F192F2A2D69
:105260003B2D4C2D5D2D6E2D7F2D802F912F3F835B
:105270002E832C813D818E81482F405DCE01089682
:10528000FC01E20FF31F40838C819D8101969D8379
:105290008C83AC8CBD8CCE8CDF8CE8A0F9A00AA1ED
:1052A0001BA12A2D3B2D4C2D5D2D6E2D7F2D802F8A
:1052B000912F0F2EFAE0AF2EF02DBB24CC24DD244D
:1052C000EE24FF2400E010E00E94EF01A22EB32E96
:1052D000C42ED52EE62EF72E082F192FAC8EBD8E9C
:1052E000CE8EDF8EE8A2F9A20AA31BA38C8D9D8D22
:1052F000892B9E8D892B9F8D892B98A1892B99A114
:10530000892B9AA1892B9BA1892B882309F082CF15
:105310008981882329F18A819B81FC01EA50FE4F13
:105320008DE280838A819B8101969B838A8318C04A
:105330008C819D8101979D838C834A815B812C8127
:105340003D81CE010896FC01E20FF31F8081FA0136
:10535000EA50FE4F80838A819B8101969B838A83DA
:105360008C819D81009721F78A819B81FC01EA5005
:10537000FE4F108286EF91E09DA38CA38CA19DA18E
:10538000CF5ADF4F0FB6F894DEBF0FBECDBFCF911F
:10539000DF911F910F91FF90EF90DF90CF90BF9022
:1053A000AF900895AF92BF92CF92DF92EF92FF92AB
:1053B0000F931F93DF93CF93CDB7DEB7EB970FB665
:1053C000F894DEBF0FBECDBF29833A834B835C8345
:1053D0006D837E838F839887A986BA86CB86DC8689
:1053E000ED86FE860F87188B8981898B9A819A8B2F
:1053F0008B818B8B9C819C8B8D818D8B9E819E8BD9
:105400008F818F8B9885988F8985898F9A859A8FC0
:105410008B858B8F9C859C8F8D858D8F9E859E8F98
:105420008F858F8F988998A38989998D890F89A3F2
:1054300081E089A799A18989981708F019A69A8906
:105440008A8D980F9AA391E09AA78AA19A898917C1
:1054500008F01AA689A59AA1890F8BA781E08CA7CD
:105460009BA58AA1981708F01CA69AA58CA5982B35
:105470009AA79BA59AA38B899B8D890F8BA381E00B
:105480008DA79BA18B89981708F01DA69AA58BA1C3
:10549000980F9EA791E09FA78EA59BA1891708F062
:1054A0001FA68DA59FA5892B8DA78EA58BA39C8953
:1054B0008C8D980F9CA391E098AB8CA19C89891747
:1054C00008F018AA8DA59CA1890F89AB81E08AAB51
:1054D00099A98CA1981708F01AAA98A98AA9982BBB
:1054E00098AB99A99CA38D899D8D890F8DA381E08F
:1054F0008BAB9DA18D89981708F01BAA98A98DA147
:10550000980F9CAB91E09DAB8CA99DA1891708F0E9
:105510001DAA8BA99DA9892B8BAB8CA98DA39E89D4
:105520008E8D980F9EA391E09EAB8EA19E898917C8
:1055300008F01EAA8BA99EA1890F8FAB81E088AFCE
:105540009FA98EA1981708F018AE9EA988AD982B38
:105550009EAB9FA99EA38F899F8D890F8FA381E00A
:1055600089AF9FA18F89981708F019AE9EA98FA1C6
:10557000980F9AAF91E09BAF8AAD9FA1891708F071
:105580001BAE89AD9BAD892B89AF8AAD8FA3988D5A
:1055900088A1980F98A789AD98A5890F88A729A1F8
:1055A0003AA14BA15CA16DA17EA18FA198A5A22ECD
:1055B000B32EC42ED52EE62EF72E082F192F2A2D06
:1055C0003B2D4C2D5D2D6E2D7F2D802F912FEB9639
:1055D0000FB6F894DEBF0FBECDBFCF91DF911F9104
:1055E0000F91FF90EF90DF90CF90BF90AF90089514
:1055F000AF92BF92CF92DF92EF92FF920F931F93E1
:10560000DF93CF93CDB7DEB7EB970FB6F894DEBF3D
:105610000FBECDBF29833A834B835C836D837E832A
:105620008F839887A986BA86CB86DC86ED86FE8630
:105630000F87188B8981898B9A819A8B8B818B8BB1
:105640009C819C8B8D818D8B9E819E8B8F818F8B7E
:105650009885988F8985898F9A859A8F8B858B8F6E
:105660009C859C8F8D858D8F9E859E8F8F858F8F3E
:10567000988998A38989998D891B89A381E089A735
:1056800099A18989891708F019A69A898A8D981B8A
:105690009AA391E09AA78AA19A89981708F01AA666
:1056A0008AA199A5891B8BA781E08CA79BA58AA1BC
:1056B000891708F01CA69AA58CA5982B9AA79BA5DC
:1056C0009AA38B899B8D891B8BA381E08DA79BA1BE
:1056D0008B89891708F01DA69BA18AA5981B9EA7F8
:1056E00091E09FA78EA59BA1981708F01FA68DA5F6
:1056F0009FA5892B8DA78EA58BA39C898C8D981B2C
:105700009CA391E098AB8CA19C89981708F018AAEB
:105710008CA19DA5891B89AB81E08AAB99A98CA13D
:10572000891708F01AAA98A98AA9982B98AB99A961
:105730009CA38D899D8D891B8DA381E08BAB9DA141
:105740008D89891708F01BAA9DA188A9981B9CAB7D
:1057500091E09DAB8CA99DA1981708F01DAA8BA97B
:105760009DA9892B8BAB8CA98DA39E898E8D981BAF
:105770009EA391E09EAB8EA19E89981708F01EAA69
:105780008EA19BA9891B8FAB81E088AF9FA98EA1B9
:10579000891708F018AE9EA988AD982B9EAB9FA9DB
:1057A0009EA38F899F8D891B8FA381E089AF9FA1C5
:1057B0008F89891708F019AE9FA18EA9981B9AAFFF
:1057C00091E09BAF8AAD9FA1981708F01BAE89AD01
:1057D0009BAD892B89AF8AAD8FA3988D88A1981B2B
:1057E00098A788A599AD891B88A729A13AA14BA1A3
:1057F0005CA16DA17EA18FA198A5A22EB32EC42E6F
:10580000D52EE62EF72E082F192F2A2D3B2D4C2DA5
:105810005D2D6E2D7F2D802F912FEB960FB6F89476
:10582000DEBF0FBECDBFCF91DF911F910F91FF90D3
:10583000EF90DF90CF90BF90AF900895AF92BF925E
:10584000CF92DF92EF92FF920F931F93DF93CF934C
:10585000CDB7DEB760970FB6F894DEBF0FBECDBFF1
:1058600029833A834B835C836D837E838F83988700
:10587000A986BA86CB86DC86ED86FE860F87188BD6
:1058800029813A814B815C816D817E818F819885F0
:10589000A984BA84CB84DC84ED84FE840F851889C6
:1058A0000E944900A22EB32EC42ED52EE62EF72E2E
:1058B000082F192F2A2D3B2D4C2D5D2D6E2D7F2D60
:1058C000802F912FA22EB32EC42ED52EE62EF72E8A
:1058D000082F192F2A2D3B2D4C2D5D2D6E2D7F2D40
:1058E000802F912F60960FB6F894DEBF0FBECDBF0C
:1058F000CF91DF911F910F91FF90EF90DF90CF90AC
:10590000BF90AF900895AF92BF92CF92DF92EF9287
:10591000FF920F931F93DF93CF93CDB7DEB76897B6
:105920000FB6F894DEBF0FBECDBF29833A834B83F9
:105930005C836D837E838F839887A986BA86CB86A6
:10594000DC86ED86FE860F87188B89859A85892BE4
:105950009B85892B9C85892B9D85892B9E85892BF1
:105960009F85892B9889892B882359F48FEF898B00
:105970008FEF8A8B1B8A1C8A1D8A1E8A1F8A188EAB
:1059800022C029813A814B815C816D817E818F812A
:105990009885A984BA84CB84DC84ED84FE840F8549
:1059A00018890E94EF01A22EB32EC42ED52EE62E0A
:1059B000F72E082F192FA98ABA8ACB8ADC8AED8A9A
:1059C000FE8A0F8B188FA988BA88CB88DC88ED886F
:1059D000FE880F89188D2A2D3B2D4C2D5D2D6E2DA7
:1059E0007F2D802F912F68960FB6F894DEBF0FBEE3
:1059F000CDBFCF91DF911F910F91FF90EF90DF907E
:105A0000CF90BF90AF9008952F923F924F925F92A8
:105A10006F927F928F929F92AF92BF92CF92DF92BE
:105A2000EF92FF920F931F93DF93CF93CDB7DEB723
:105A300061970FB6F894DEBF0FBECDBF9C878B87F2
:105A40007E876D874F87EB85FC8580818B83818185
:105A50008C8382818D8383818E8384818F838581F2
:105A600088878681898787818A871A8219826EC191
:105A700029813A818D859E85FC01E20FF31F80818B
:105A8000282F30E0398B288B888999898B329105B2
:105A9000C9F0288939892C3231053CF488899989E3
:105AA0008A32910509F4ECC034C1288939892D3234
:105AB000310509F451C0888999898F32910509F41B
:105AC00095C027C1AB80BC80CD80DE80EF80F8849C
:105AD00009851A8589819A8101969C01220F331FBD
